:02000000412E8F
:0400060000000800EE
:10000A0083160313141913281F301105F100710800
:10001A00003A031D13280130F0001428F0010800EB
:10002A00083083120313FC002330FD00FD0B1B284C
:06003A00FC0B1B2808006E
:10004000103083120313FD00FD0B2428000008006C
:0E005000831603139114911C2E282B280800F0
:10005E0083120317A401A5012508123C031D39289C
:10006E0024088E3C031C46280520700803194028DE
:10007E00462883120317A40A0319A50A33288312EC
:10008E00031712302502031D4E288F302402031C45
:10009E0053287B30F0005A28831603131114111CB9
:0800AE0059285628F001080052
:1000B600831203138C118316911583128C196428ED
:1000C60060281308F10003172408003A031D6F285F
:1000D6008316031391167228831603139112831243
:1000E6008C118316111683128C197A2876287108BA
:0400F600F00008000E
:0800FA00831603131115080021
:1001020083120317A41B8728861288288616241BAD
:100112008C2806128D280616A41A91288611922878
:100122008615241A96280611972806158316031396
:1001320067189E2883120614A028831206108614BC
:10014200032086100317A419A8288612A928861648
:100152002419AD280612AE280616A418B228861154
:10016200B32886152418B7280611B8280615831651
:1001720003136718BF2883120614C12883120610BE
:100182008614032086108316671CC9281520CA28E6
:040192002020080021
:10019600831203172408F000F00CF013F00CF01390
:0E01A600F00CF013F00CF0133030F0070800EE
:1001B400831203138C11031724080313930083166B
:1001C400141DE528E12883128C19E928E5288316F3
:1001D400111BEE28F001F12811150230F00008007F
:1001E4000F30831203172405F0003030F0070800A5
:1001F400831603135F0883120317A400CB2070082F
:100204000313EE007008343A031D0D292030A000BA
:100214004130A90027296E08353A031D16293130CB
:10022400A0004130A90027296E08363A031D1F2972
:100234002030A0005030A90027296E08373A031D4A
:1002440027293130A0005030A90083165F0883129B
:100254000317A400F22070080313A1003A30A2008F
:100264006F080317A400CB2070080313A3006F08C2
:100274000317A400F22070080313A4003A30A50069
:1002840083166B0883120317A400CB207008031392
:10029400A60083166B0883120317A400F2207008CB
:1002A4000313A7002030A8004D30AA00AB010800BA
:1002B400831603136710831203172208A4008120F6
:0602C40083166714080018
:1002CA002F20D03083120317A400DA2083120317D9
:1002DA002208A400DA20831203172308A400DA20D4
:0402EA007D2008006B
:1002EE002F20D03083120317A400DA2083120317B5
:1002FE002208A400DA202820D13083120317A4008C
:10030E00DA2083120317A4015B2070088316EC0019
:08031E007D206C08F0000800CE
:1003260083160313640883120317A400F2207008CF
:1003360083160313E1007008313A031DAA295330CE
:100346008312AC007530AD006E30AE00F72983160F
:100356006108323A031DB7294D308312AC006F3065
:10036600AD006E30AE00F72983166108333A031DDF
:10037600C42954308312AC007530AD006530AE0030
:10038600F72983166108343A031DD12957308312A1
:10039600AC006530AD006430AE00F7298316610805
:1003A600353A031DDE2954308312AC006830AD00A7
:1003B6007530AE00F72983166108363A031DEB291E
:1003C60046308312AC007230AD006930AE00F729BA
:1003D60083166108373A031DF72953308312AC00A0
:1003E6006130AD007430AE0083122030AF0083164A
:1003F600660883120317A400CB2070080313B0000D
:100406008316660883120317A400F22070080313EC
:10041600B1002F30B2008316650883120317A400BB
:10042600CB2070080313B3008316650883120317E5
:10043600A400F22070080313B4002F30B500323048
:10044600B6003030B7008316600883120317A40085
:10045600CB2070080313B8008316600883120317B5
:0E046600A400F22070080313B900BA010800C8
:10047400831203171E08F2002008210403195D2AC1
:100484000130A002031CA1037208F100F20A1F0844
:10049400F0009F0A700884000008F00071088400CE
:1004A40070088000710884000008F0007008031DC3
:1004B4005C2A5D2A3E2A2008F0002108F100013060
:1004C400A002031CA1037008710403196E2A7208A8
:0E04D40084008001F20A5D2A1E08F000080074
:0E04E2000030831203138C1A0130F000080062
:1004F000831203131A08F100981C802A1812181688
:060500007108F000080084
:10050600831603178C1C892A0000832A83121E086F
:100516008D001F088C0083168C130C150B08F00039
:100526008B1355308D00AA308D008C14F01B9D2A3C
:0A0536008B139E2A8B170C1108008E
:1005400083120317A20177217008EB000130831298
:100550000317A200772170088312EF0002300317FF
:10056000A20077217008DF00033083120317A20076
:1005700077217008E400043083120317A20077216A
:100580007008E600053083120317A2007721700877
:10059000E500063083120317A20077217008E000FF
:1005A00043305F020130031C0030F1005F08463C1D
:1005B0000130031C0030F0007108F0050319EB2A2C
:1005C000831285160130EC0020300317A2000230A0
:1005D000A3006521F42A83128512EC012030031751
:0E05E000A2000130A30065219321FA2008003B
:0E05EE008316031363088A0062088200080067
:1005FC00102B8030831203179E00232BC0309E00DB
:10060C00232B94309E00232BD4309E00232B803040
:10061C009E00232B831203171E08013A0319FF2A8D
:10062C001E08023A0319042B1E08033A0319072B60
:10063C001E08043A03190A2B0D2B1F03F0001E0889
:10064C00F00770089E007008A400812083166710C4
:10065C0083120317A1012108200784000008031945
:10066C00412B2108200784000008A2005A21831284
:0E067C000317A10A312B83160313671408001D
:10068A008316031398184B2B0000452B831203176C
:08069A001E080313990008007B
:1006A200831203171E088D0083168C130C148312F9
:0606B2000C08F000080036
:1006B800831203130918A62B8918A62B0317A20166
:1006C8008030A3006521013083120317A200A30123
:1006D8006521023083120317A2004930A300652167
:1006E800033083120317A2000130A30065210430F0
:1006F80083120317A2002330A3006521053083125B
:100708000317A2001130A3006521063083120317D6
:10071800A2001430A3006521073083120317A2003A
:100728001030A300652183120317A201A3016521DC
:100738008230FC00DD30FD00FD0BA02BFC0BA02B54
:100748000000000083120918BB2B891CBB2BED0A83
:100758008230FC00DD30FD00FD0BB02BFC0BB02B14
:10076800000000006D08023C0318BB2BED0189183E
:10077800D32B6D08003A031DD32B091CD32B19303A
:100788000317A2000130A30065218230FC00DD3090
:10079800FD00FD0BCD2BFC0BCD2B000000008312C0
:1007A8000919E92B6D08003A031DE92B19300317C5
:1007B800A200A30165218230FC00DD30FD00FD0BA5
:1007C800E32BFC0BE32B0000000083128918132C89
:1007D8006D08013A031D132C091C132C0317A201E1
:1007E8008030A3006521013083120317A200A30102
:1007F8006521023083120317A2004330A30065214C
:1008080083120317A201A30165218230FC00DD30A9
:10081800FD00FD0B0D2CFC0B0D2C000000008312BD
:1008280009193C2C6D08013A031D3C2C0317A20141
:100838008030A3006521013083120317A2005930CC
:10084800A3006521023083120317A2004630A300DB
:10085800652183120317A201A30165218230FC00E0
:10086800DD30FD00FD0B362CFC0B362C00000000A3
:10087800831289186A2C6D08023A031D6A2C091C18
:100888006A2C10300317A2000130A3006521113033
:1008980083120317A2000230A300652112308312CD
:1008A8000317A2000430A300652113308312031735
:1008B800A2000830A30065218230FC00DD30FD0075
:1008C800FD0B642CFC0B642C00000000831209193A
:1008D800962C6D08023A031D962C10300317A200BF
:1008E8000330A3006521113083120317A2000630DC
:1008F800A3006521123083120317A2000C30A30055
:100908006521133083120317A2000930A300652163
:100918008230FC00DD30FD00FD0B902CFC0B902C90
:06092800000000000800C1
:10092E00831603136F08003A031DA62C1030831292
:10093E000317A2007721700883128500CF2C83162F
:10094E006F08013A031DB42C113083120317A20055
:10095E007721700883128500CF2C83166F08023A18
:10096E00031DC22C123083120317A20077217008C8
:10097E0083128500CF2C83166F08033A031DCF2CEC
:10098E00133083120317A20077217008831285009B
:10099E0083126C18D42C8512D52C85166B08013A4F
:1009AE00031DF12C8316EF0380306F06F0008030AC
:1009BE00003A70020318E52C0330EF001830831252
:1009CE000317A200831603136F0883120317A300E5
:1009DE006521072D8316EF0A8030033AF000803030
:1009EE006F0670020318FC2CEF01183083120317E8
:1009FE00A200831603136F0883120317A300652149
:020A0E000800DE
:100A100071227008003A0319112D7822700883168C
:100A2000EA000030831203179E00831603136A083E
:100A3000831203179F008322003083129E005123EC
:100A40007008900002309E00512370089100013020
:100A50009E0001309F001030A000FE22712270081D
:100A6000003A0319372D103003179E004523080064
:100A70000030831203171B06031D402D01301A0698
:100A8000031D972DA022023003179E0001309F0006
:100A90002030A000FE2283126D08003A031D602D55
:100AA000CD3003179E00BB309F001130A0000030F6
:100AB000A1003A22700883160313ED00EE01892D80
:100AC00083126D08013A031D752DCD3003179E006A
:100AD000A9309F001130A0000030A1003A22700818
:100AE00083160313ED00EE01892D83126D08023A7F
:100AF000031D892DCD3003179E0059309F00113002
:100B0000A0000030A1003A22700883160313ED0004
:100B1000EE010330831203179E0001309F008316FD
:100B200003136D0883120317A000FE22CB2D0130A2
:100B300083120317A40081200C300317A400812026
:100B4000013003179E0001309F004830A000FE22B4
:100B50000230831203179E0001309F003730A0003F
:100B6000FE220330831203179E0001309F00A03045
:100B7000A000FE221430FB004830FC000130FD00D4
:100B8000FD0BC02DFC0BC02DFB0BC02D01308312C3
:080B90000317A40081200800F6
:100B9800F7228A110A128000840AE20A0319E30A7A
:080BA800F003031DCC2D080031
:100BB0008316031314139413071687153830831202
:040BC0009400080095
:100BC4008316031386100610061186110612861268
:100BD400831286100610861206128611061115203D
:100BE4001520152086150615861403208610152059
:100BF40086140320861015208614032086101520E1
:100C040006118614032086101520861403208610EE
:100C14008611861686140320861015208612061562
:100C240086140320861006118614032086101520CE
:100C340086140320861006158614032086101520BA
:100C440006118614032086108616061686150615C8
:0E0C54008614032086101520831667140800EE
:100C62008316031398169030831298008316871701
:100C7200071383128C1E402E1A08F0003A2E080029
:100C820030270730831603139F0007309C0019306A
:100C92009900181531260A3083169300D825831639
:100CA20086018501FF308700FF30890018308312EA
:100CB2000317A200A3016521193083120317A200B2
:100CC200A3016521E9018312ED018316E801E22502
:100CD200831203179A019B01382582308312031372
:100CE200FC00DD30FD00FD0B742EFC0B742E0000A9
:100CF200000008255C23183083120317A200772115
:100D02007008E900193083120317A20077217008D6
:100D12008312EB00851A912E83166908EF0097243F
:100D22000130831203179A0000309B0038252130CE
:0E0D320083120313FD00FD0B9C2E7A2E9F2EC4
:100E6000203084004B3083120313F000A53083162A
:100E7000E2000630E300CC25A03084003F30F000D3
:0E0E8000F0308316E2000630E300CC250800B7
:100D4A00303430343A34303430343A343034303465
:080D5A00203450344D34003404
:100D6200303430342F34303430342F343034303463
:060D72003034303400347F
:100D7800493465347A3465346B34693469346C3495
:100D8800203449346F3461346E346E346F347534C2
:020D9800003425
:100D9A00503472346A3420344E34693467346834D7
:100DAA00743420345234543443344C344534443447
:020DBA00003403
:100DBC0057344134563445342034533445344C3450
:100DCC0045344334543420342034203420342034FB
:040DDC00203400348B
:100DE00041344D343A3434343234303431343234A2
:020DF0000034CD
:100DF200543445345334543420344D344F34443411
:100E0200453420342034203420342034203420341B
:040E12002034003454
:100E160044344934523445344334543449344F34D9
:100E26004E342034533445344C34453443345434EE
:040E36002034003430
:100E3A002034203420342034203420342034203408
:100E4A0020342034203420342034203420342034F8
:040E5A00203400340C
:02400E004A2F37
:00000001FF
